:0906B9002E20202020202020002A
:0A0673000810202020202020202065
:1001C2001205557F507EC3120659120627D2AF7B05
:1001D200007A00791A7FE31204A67B007A00791C68
:1001E2007FE51204A6E4F52B851A23851B24851CC2
:1001F20025851D26FB7A0079217F06FE1205E17511
:100202000C0085250DE50D750D00F50CE526250D77
:10021200F50DE4350CF50CFEE4850D0B8E0AF5099F
:10022200F508AF0BAE0AAD09AC087B7DFAF9F812FE
:1002320000928F0B8E0A8D098C0878101201AF8FF5
:100242000B8E0A8D098C088F0E74FA250EF50E7B23
:10025200007A007910FF1203307B007A0079107D5A
:10026200B812059B750C0085230DE50D750D00F583
:100272000CE524250DF50DE4350CF50CFEE4850D99
:100282000B8E0AF509F508AF0BAE0AAD09AC087B77
:10029200A47A44F9F81200928F0B8E0A8D098C0809
:1002A20078101201AF8F0B8E0A8D098C08E50B2492
:1002B200B3F50BE50A34EDF50AE50934FFF509E576
:1002C2000834FFF508E47B64FAF9F8AF0BAE0AAD27
:1002D20009AC0812011D8F18E47B64FAF9F8AF0B20
:1002E200AE0AAD09AC0812011DAF038F197B007A6B
:1002F200007910AF181203307B007A0079107DD09C
:1003020012059B7BFF7A0679B97DC312059B7B00A0
:100312007A007910AF191203307B007A0079107DD0
:0E032200D412059B7F507EC31206590201D1F2
:03067D00012B004E
:10062700758921D2AF758BFD758DFDD28EE4F58767
:06063700759850D2AC22C0
:03002300020003D5
:10000300C0E0C0D075D00030980BC2987421252B66
:0A001300F8A699052BD0D0D0E032FA
:0806C2008F993099FDC29922C5
:1005E1008B2C8A2D892EAD07AC06ED4C601EAB2CF1
:1005F100052EE52EAA2D7002052D14F9120026FFF5
:0D0601001206C2ED1D70011CED4C70E222CE
:07068100D291120688D2900D
:050688007F3C00DFFDD6
:01068D00224A
:0D068E00120681C291120688C290020688F1
:0A069B00C291120683D29102068874
:02050700AE073D
:10050900C2007DC8E4FCC290EEA804088002C3338F
:10051900D8FC30E704D2918002C2911206830CBC48
:1005290008E4120688C290D2911206881206837DC9
:10053900C8AF051DEF60081206882091F4D200EDBE
:0B0549007002C200C290120688A200DF
:010554002284
:10060E00E4FEFDD290120688EE25E0FE3091010E3A
:08061E00C2900DBD08EDAF060E
:0106260022B1
:10063D00C291120688C290120683C290120688D209
:04064D009102068888
:06001D00120681C29022D0
:0204A6008F2C99
:1004A80012068E7F80120507400774AA75F0BB807C
:1004B80030AF2C1205074007741275F03480227D86
:1004C800587C02ED1DAE0470011C4E6005120688B2
:1004D80080F112068E7F811205074008743475F08A
:1004E8005602007312060EEF12003F12063D120666
:0E04F8000E900001EF12005112001D12069B23
:0105060022D2
:100555007F381206A57F381206A57F381206A57FBB
:10056500081206A51206647F011206A51206647F0D
:10057500507EC31206597F141206A51206647F0623
:100585001206A51206647F801206A51206647F0C6A
:060595001206A502066437
:06059B008B2C8A2D892E35
:1005A100E4F52FF530ED5438131313541FF530EDE6
:1005B10054C7FF1206A5120664E4F52FE52FD39563
:1005C10030501CAB2C052EE52EAA2D7002052D14E2
:0F05D100F9120026FF1206AF120664052F80DD17
:0105E00022F8
:0A06A5008F80C2A1120651C2A022EC
:0A06AF008F80D2A1120651C2A022D2
:0E066400C2A1D2A2D2A0AF80C2A0EF20E7F2C6
:010672002265
:08065100C2A2D2A07F647E006A
:0B065900EF1FAC0670011E4C70F62273
:100330008B2C8A2D892EEFC3940A5033EF2430FF83
:10034000052EE52E7002052D14F9EF12003FAB2C9F
:10035000052EE52EAA2D7002052D14F97420120029
:100360003FAB2C052EE52EAA2D704C052D8048EFB5
:10037000C394645048EF75F00A842430FEAB2C051A
:100380002EE52EAA2D7002052D14F9EE12003FEF76
:1003900075F00A84E5F02430FFAB2C052EE52EAA7B
:1003A0002D7002052D14F9EF12003FAB2C052EE540
:1003B0002EAA2D7002052D14F974208059EFD394C4
:1003C000FF5056EF75F064842430FEAB2C052EE50B
:1003D0002EAA2D7002052D14F9EE12003FEF75F0D4
:1003E0000A8475F00A84E5F02430FEAB2C052EE576
:1003F0002EAA2D7002052D14F9EE12003FEF75F0B4
:100400000A84E5F02430FFAB2C052EE52EAA2D70D2
:0A04100002052D14F9EF12003F223F
:0300000002041ADD
:0C041A00787FE4F6D8FD758130020461A3
:10002600BB010689828A83E0225002E722BBFE02D8
:09003600E32289828A83E493220B
:10003F00BB010689828A83F0225002F722BBFE01A0
:02004F00F3229A
:10005100F8BB010DE58229F582E5833AF583E8F0E5
:10006100225006E92582C8F622BBFE05E92582C891
:02007100F22279
:10007300BB010A89828A83F0E5F0A3F0225006F7D8
:0F00830009A7F01922BBFE06F3E5F009F31922D5
:10009200E88FF0A4CC8BF0A42CFCE98EF0A42CFC0D
:1000A2008AF0EDA42CFCEA8EF0A4CDA8F08BF0A48B
:1000B2002DCC3825F0FDE98FF0A42CCD35F0FCEBEA
:1000C2008EF0A4FEA9F0EB8FF0A4CFC5F02ECD39AF
:0F00D200FEE43CFCEAA42DCE35F0FDE43CFC221C
:1000E10075F008758200EF2FFFEE33FECD33CDCCD6
:1000F10033CCC58233C5829BED9AEC99E582984059
:100101000CF582EE9BFEED9AFDEC99FC0FD5F0D635
:10011100E4CEFBE4CDFAE4CCF9A88222B800C1B95F
:100121000059BA002DEC8BF084CFCECDFCE5F0CB9D
:10013100F97818EF2FFFEE33FEED33FDEC33FCEBD6
:1001410033FB10D703994004EB99FB0FD8E5E4F991
:10015100FA227818EF2FFFEE33FEED33FDEC33FC7E
:10016100C933C910D7059BE99A4007EC9BFCE99A72
:10017100F90FD8E0E4C9FAE4CCFB2275F010EF2FB7
:10018100FFEE33FEED33FDCC33CCC833C810D707B7
:100191009BEC9AE899400AED9BFDEC9AFCE899F8F2
:0E01A1000FD5F0DAE4CDFBE4CCFAE4C8F92285
:1001AF00E8600FECC313FCED13FDEE13FEEF13FF2E
:0301BF00D8F12252
:100426000201C2E493A3F8E493A34003F68001F229
:1004360008DFF48029E493A3F85407240CC8C333D7
:10044600C4540F4420C8834004F456800146F6DFA6
:10045600E4800B0102040810204080900673E47EBD
:10046600019360BCA3FF543F30E509541FFEE4939B
:10047600A360010ECF54C025E060A840B8E493A362
:10048600FAE493A3F8E493A3C8C582C8CAC583CA8D
:10049600F0A3C8C582C8CAC583CADFE9DEE780BE45
:010680000079
:00000001FF
